{
  "contractName": "Candidate",
  "abi": [
    {
      "constant": true,
      "inputs": [],
      "name": "id",
      "outputs": [
        {
          "name": "",
          "type": "bytes32"
        }
      ],
      "payable": false,
      "stateMutability": "view",
      "type": "function"
    },
    {
      "inputs": [
        {
          "name": "_id",
          "type": "bytes32"
        }
      ],
      "payable": false,
      "stateMutability": "nonpayable",
      "type": "constructor"
    },
    {
      "constant": false,
      "inputs": [
        {
          "name": "voter",
          "type": "address"
        }
      ],
      "name": "vote",
      "outputs": [],
      "payable": false,
      "stateMutability": "nonpayable",
      "type": "function"
    },
    {
      "constant": true,
      "inputs": [],
      "name": "getVoteCount",
      "outputs": [
        {
          "name": "",
          "type": "uint256"
        }
      ],
      "payable": false,
      "stateMutability": "view",
      "type": "function"
    }
  ],
  "bytecode": "0x608060405234801561001057600080fd5b506040516020806102bd8339810180604052602081101561003057600080fd5b81019080805190602001909291905050508060018190555050610265806100586000396000f3fe608060405260043610610057576000357c0100000000000000000000000000000000000000000000000000000000900463ffffffff1680636dd7d8ea1461005c578063af640d0f146100ad578063e7b3387c146100d8575b600080fd5b34801561006857600080fd5b506100ab6004803603602081101561007f57600080fd5b81019080803573ffffffffffffffffffffffffffffffffffffffff169060200190929190505050610103565b005b3480156100b957600080fd5b506100c261017e565b6040518082815260200191505060405180910390f35b3480156100e457600080fd5b506100ed610184565b6040518082815260200191505060405180910390f35b600061010e82610190565b141561017b5760008190806001815401808255809150509060018203906000526020600020016000909192909190916101000a81548173ffffffffffffffffffffffffffffffffffffffff021916908373ffffffffffffffffffffffffffffffffffffffff160217905550505b50565b60015481565b60008080549050905090565b6000806000905060008090505b6000805490508160ff16101561022f578373ffffffffffffffffffffffffffffffffffffffff1660008260ff168154811015156101d657fe5b9060005260206000200160009054906101000a900473ffffffffffffffffffffffffffffffffffffffff1673ffffffffffffffffffffffffffffffffffffffff16141561022257600191505b808060010191505061019d565b508091505091905056fea165627a7a7230582091d773b1b29af40dcdc8a6c34cf573761ae33724fc6479d3b7997fd667050bb40029",
  "source": "pragma solidity ^0.5.0;\n\ncontract Candidate {\n\taddress[] votes;\n\tbytes32 public id;\n\tconstructor(bytes32 _id) public {\n\t\tid = _id;\n\t}\n\tfunction alreadyVoted(address v) internal view returns(uint) {\n\t\tuint found = 0;\n\t\tfor(uint8 i=0; i<votes.length; i++) {\n\t\t\tif(votes[i] == v) {\n\t\t\t\tfound = 1;\n\t\t\t}\n\t\t}\n\t\treturn found;\n\t}\n\tfunction vote(address voter) public {\n\t\tif(alreadyVoted(voter) == 0) {\n\t\t\tvotes.push(voter);\n\t\t}\n\t}\n\tfunction getVoteCount() public view returns(uint) {\n\t\treturn votes.length;\n\t}\n}",
  "sourcePath": "/Users/faustovanin/Projects/OnePercent/dev/icolab-blockchain/contracts/Candidate.sol",
  "compiler": {
    "name": "solc",
    "version": "0.5.0+commit.1d4f565a.Emscripten.clang"
  },
  "schemaVersion": "3.0.8",
  "updatedAt": "2019-08-06T02:00:54.630Z",
  "devdoc": {
    "methods": {}
  },
  "userdoc": {
    "methods": {}
  }
}