{
  "contractName": "UpVoting",
  "abi": [
    {
      "inputs": [],
      "payable": false,
      "stateMutability": "nonpayable",
      "type": "constructor",
      "signature": "constructor"
    },
    {
      "anonymous": false,
      "inputs": [
        {
          "indexed": false,
          "name": "sender",
          "type": "address"
        },
        {
          "indexed": false,
          "name": "vote",
          "type": "bytes32"
        }
      ],
      "name": "Voted",
      "type": "event",
      "signature": "0xc78796858497f000f0a77d7f0c624bbaf635bf26239188e8fba52c571db2398d"
    },
    {
      "constant": false,
      "inputs": [
        {
          "name": "name",
          "type": "bytes32"
        }
      ],
      "name": "vote",
      "outputs": [],
      "payable": false,
      "stateMutability": "nonpayable",
      "type": "function",
      "signature": "0xa69beaba"
    },
    {
      "constant": false,
      "inputs": [
        {
          "name": "name",
          "type": "bytes32"
        },
        {
          "name": "voter",
          "type": "address"
        }
      ],
      "name": "voteFor",
      "outputs": [],
      "payable": false,
      "stateMutability": "nonpayable",
      "type": "function",
      "signature": "0x028d148f"
    },
    {
      "constant": true,
      "inputs": [
        {
          "name": "name",
          "type": "bytes32"
        }
      ],
      "name": "getCandidate",
      "outputs": [
        {
          "name": "",
          "type": "address"
        }
      ],
      "payable": false,
      "stateMutability": "view",
      "type": "function",
      "signature": "0xdfb6419f"
    },
    {
      "constant": true,
      "inputs": [
        {
          "name": "name",
          "type": "bytes32"
        }
      ],
      "name": "getVotes",
      "outputs": [
        {
          "name": "",
          "type": "uint256"
        }
      ],
      "payable": false,
      "stateMutability": "view",
      "type": "function",
      "signature": "0x4c051100"
    }
  ],
  "bytecode": "0x608060405234801561001057600080fd5b5033600160006101000a81548173ffffffffffffffffffffffffffffffffffffffff021916908373ffffffffffffffffffffffffffffffffffffffff160217905550610a4b806100616000396000f3fe608060405260043610610062576000357c0100000000000000000000000000000000000000000000000000000000900463ffffffff168063028d148f146100675780634c051100146100c2578063a69beaba14610111578063dfb6419f1461014c575b600080fd5b34801561007357600080fd5b506100c06004803603604081101561008a57600080fd5b8101908080359060200190929190803573ffffffffffffffffffffffffffffffffffffffff1690602001909291905050506101c7565b005b3480156100ce57600080fd5b506100fb600480360360208110156100e557600080fd5b8101908080359060200190929190505050610403565b6040518082815260200191505060405180910390f35b34801561011d57600080fd5b5061014a6004803603602081101561013457600080fd5b81019080803590602001909291905050506104db565b005b34801561015857600080fd5b506101856004803603602081101561016f57600080fd5b8101908080359060200190929190505050610716565b604051808273ffffffffffffffffffffffffffffffffffffffff1673ffffffffffffffffffffffffffffffffffffffff16815260200191505060405180910390f35b600073ffffffffffffffffffffffffffffffffffffffff1660008084815260200190815260200160002060009054906101000a900473ffffffffffffffffffffffffffffffffffffffff1673ffffffffffffffffffffffffffffffffffffffff1614156102af5781610237610752565b80828152602001915050604051809103906000f08015801561025d573d6000803e3d6000fd5b5060008084815260200190815260200160002060006101000a81548173ffffffffffffffffffffffffffffffffffffffff021916908373ffffffffffffffffffffffffffffffffffffffff1602179055505b60008083815260200190815260200160002060009054906101000a900473ffffffffffffffffffffffffffffffffffffffff1673ffffffffffffffffffffffffffffffffffffffff16636dd7d8ea826040518263ffffffff167c0100000000000000000000000000000000000000000000000000000000028152600401808273ffffffffffffffffffffffffffffffffffffffff1673ffffffffffffffffffffffffffffffffffffffff168152602001915050600060405180830381600087803b15801561037c57600080fd5b505af1158015610390573d6000803e3d6000fd5b505050507fc78796858497f000f0a77d7f0c624bbaf635bf26239188e8fba52c571db2398d8183604051808373ffffffffffffffffffffffffffffffffffffffff1673ffffffffffffffffffffffffffffffffffffffff1681526020018281526020019250505060405180910390a15050565b600080600083815260200190815260200160002060009054906101000a900473ffffffffffffffffffffffffffffffffffffffff1673ffffffffffffffffffffffffffffffffffffffff1663e7b3387c6040518163ffffffff167c010000000000000000000000000000000000000000000000000000000002815260040160206040518083038186803b15801561049957600080fd5b505afa1580156104ad573d6000803e3d6000fd5b505050506040513d60208110156104c357600080fd5b81019080805190602001909291905050509050919050565b600073ffffffffffffffffffffffffffffffffffffffff1660008083815260200190815260200160002060009054906101000a900473ffffffffffffffffffffffffffffffffffffffff1673ffffffffffffffffffffffffffffffffffffffff1614156105c3578061054b610752565b80828152602001915050604051809103906000f080158015610571573d6000803e3d6000fd5b5060008083815260200190815260200160002060006101000a81548173ffffffffffffffffffffffffffffffffffffffff021916908373ffffffffffffffffffffffffffffffffffffffff1602179055505b60008082815260200190815260200160002060009054906101000a900473ffffffffffffffffffffffffffffffffffffffff1673ffffffffffffffffffffffffffffffffffffffff16636dd7d8ea336040518263ffffffff167c0100000000000000000000000000000000000000000000000000000000028152600401808273ffffffffffffffffffffffffffffffffffffffff1673ffffffffffffffffffffffffffffffffffffffff168152602001915050600060405180830381600087803b15801561069057600080fd5b505af11580156106a4573d6000803e3d6000fd5b505050507fc78796858497f000f0a77d7f0c624bbaf635bf26239188e8fba52c571db2398d3382604051808373ffffffffffffffffffffffffffffffffffffffff1673ffffffffffffffffffffffffffffffffffffffff1681526020018281526020019250505060405180910390a150565b600080600083815260200190815260200160002060009054906101000a900473ffffffffffffffffffffffffffffffffffffffff169050919050565b6040516102bd806107638339019056fe608060405234801561001057600080fd5b506040516020806102bd8339810180604052602081101561003057600080fd5b81019080805190602001909291905050508060018190555050610265806100586000396000f3fe608060405260043610610057576000357c0100000000000000000000000000000000000000000000000000000000900463ffffffff1680636dd7d8ea1461005c578063af640d0f146100ad578063e7b3387c146100d8575b600080fd5b34801561006857600080fd5b506100ab6004803603602081101561007f57600080fd5b81019080803573ffffffffffffffffffffffffffffffffffffffff169060200190929190505050610103565b005b3480156100b957600080fd5b506100c261017e565b6040518082815260200191505060405180910390f35b3480156100e457600080fd5b506100ed610184565b6040518082815260200191505060405180910390f35b600061010e82610190565b141561017b5760008190806001815401808255809150509060018203906000526020600020016000909192909190916101000a81548173ffffffffffffffffffffffffffffffffffffffff021916908373ffffffffffffffffffffffffffffffffffffffff160217905550505b50565b60015481565b60008080549050905090565b6000806000905060008090505b6000805490508160ff16101561022f578373ffffffffffffffffffffffffffffffffffffffff1660008260ff168154811015156101d657fe5b9060005260206000200160009054906101000a900473ffffffffffffffffffffffffffffffffffffffff1673ffffffffffffffffffffffffffffffffffffffff16141561022257600191505b808060010191505061019d565b508091505091905056fea165627a7a7230582091d773b1b29af40dcdc8a6c34cf573761ae33724fc6479d3b7997fd667050bb40029a165627a7a72305820283e5c2979297b81918a54cd420ba9b1e497fc1d3b0aa86d857a326116dca3a30029",
  "source": "pragma solidity ^0.5.0;\n\nimport './Candidate.sol';\n\ncontract UpVoting {\n\tevent Voted(address sender, bytes32 vote);\n\tmapping(bytes32 => Candidate) candidates;\n\taddress owner;\n\n\tconstructor() public {\n\t\towner = msg.sender;\n\t}\n\n\tfunction vote(bytes32 name) public {\n\t\tif(address(candidates[name]) == address(0)) {\n\t\t\tcandidates[name] = new Candidate(name);\n\t\t}\n\t\tcandidates[name].vote(msg.sender);\n\t\temit Voted(msg.sender, name);\n\t}\n\tfunction voteFor(bytes32 name, address voter) public {\n\t\t// require(msg.sender == owner, \"Only contract owner could send delegate vote\");\n\t\tif(address(candidates[name]) == address(0)) {\n\t\t\tcandidates[name] = new Candidate(name);\n\t\t}\n\t\tcandidates[name].vote(voter);\n\t\temit Voted(voter, name);\n\t}\n\tfunction getCandidate(bytes32 name) public view returns(address) {\n\t\treturn address(candidates[name]);\n\t}\n\tfunction getVotes(bytes32 name) public view returns(uint) {\n\t\treturn candidates[name].getVoteCount();\n\t}\n}",
  "sourcePath": "/Users/faustovanin/Projects/OnePercent/dev/icolab-blockchain/contracts/UpVoting.sol",
  "compiler": {
    "name": "solc",
    "version": "0.5.0+commit.1d4f565a.Emscripten.clang"
  },
  "schemaVersion": "3.0.8",
  "updatedAt": "2019-08-01T21:24:16.087Z",
  "devdoc": {
    "methods": {}
  },
  "userdoc": {
    "methods": {}
  }
}